:100000000C9462000C948A000C948A000C948A0070
:100010000C948A000C948A000C948A000C948A0038
:100020000C948A000C948A000C948A000C948A0028
:100030000C948A000C948A000C948A000C948A0018
:100040000C9453070C948A000C948A000C948A0038
:100050000C948A000C948A000C948A000C948A00F8
:100060000C948A000C948A000000000024002700F1
:100070002A0000000000250028002B0000000000DE
:1000800023002600290004040404040404040202DA
:100090000202020203030303030301020408102007
:1000A0004080010204081020010204081020000012
:1000B0000008000201000003040700000000000027
:1000C0000000E10811241FBECFEFD8E0DEBFCDBF96
:1000D00011E0A0E0B1E0EAE7F7E102C005900D927F
:1000E000A839B107D9F722E0A8E9B1E001C01D9213
:1000F000AB33B207E1F710E0C2E6D0E004C02197CD
:10010000FE010E94B50BC136D107C9F70E949D07B9
:100110000C94BB0B0C94000096E0899FD001112435
:10012000A355BE4F90967C936E935F9791E0919606
:100130009C939197E0911A02F0911B029091190201
:10014000992339F0309751F0811108C08091C9018D
:100150000994309719F05C968C91FACF0895CF925C
:10016000DF92EF92FF920F931F9396E0899FF00129
:100170001124E355FE4F11A2278D30A12130310506
:1001800051F178F02230310509F451C023303105A6
:1001900009F452C01F910F91FF90EF90DF90CF9024
:1001A00008956623B9F361E070E00E948C002FB7D8
:1001B000F8948091A9019091AA01A091AB01B0910E
:1001C000AC012FBF8093050290930602A093070213
:1001D000B0930802DFCF9FB7F894C090A901D090E8
:1001E000AA01E090AB01F090AC019FBF0091050225
:1001F000109106022091070230910802C01AD10A1C
:10020000E20AF30A009117021091180230E020E090
:100210000C151D052E053F0550F462E070E01F919E
:100220000F91FF90EF90DF90CF900C948C006111B4
:10023000B1CF63E070E0F3CF70E060E0F0CF8330E7
:1002400081F028F4813099F08230A9F00895873048
:10025000A9F08830C9F08430B1F4809180008F7D9E
:1002600003C0809180008F7780938000089584B5CB
:100270008F7784BD089584B58F7DFBCF8091B000CA
:100280008F778093B00008958091B0008F7DF9CF73
:10029000CF93DF93282F30E0F901E255FF4F84918F
:1002A000F901E656FF4FD491F901EA57FF4FC49187
:1002B000CC23A1F081110E941F01EC2FF0E0EE0F82
:1002C000FF1FE458FF4FA591B491EC91ED2381E01D
:1002D00090E009F480E0DF91CF91089580E090E014
:1002E000FACF1F93CF93DF93282F30E0F901E25527
:1002F000FF4F8491F901E656FF4FD491F901EA5777
:10030000FF4FC491CC23A9F0162F81110E941F0129
:10031000EC2FF0E0EE0FFF1FEE58FF4FA591B491C8
:100320008FB7F894EC91111108C0D095DE23DC93BF
:100330008FBFDF91CF911F910895DE2BF8CFCF9320
:10034000DF9390E0FC01E656FF4F24918A579F4FC0
:10035000FC0184918823C9F090E0880F991FFC016B
:10036000E859FF4FA591B491FC01EE58FF4FC5919C
:10037000D49161110DC09FB7F8948C912095822380
:100380008C938881282328839FBFDF91CF91089584
:10039000623051F49FB7F8943C91822F809583236B
:1003A0008C93E8812E2BEFCF8FB7F894EC912E2B06
:1003B0002C938FBFEACF3FB7F8948091A50190911D
:1003C000A601A091A701B091A80126B5A89B05C0E0
:1003D0002F3F19F00196A11DB11D3FBFBA2FA92FC4
:1003E000982F8827BC01CD01620F711D811D911DC1
:1003F00042E0660F771F881F991F4A95D1F708952D
:100400008F929F92AF92BF92CF92DF92EF92FF9224
:100410004B015C010E94DB016B017C010E94DB014E
:100420006C197D098E099F09683E7340810591050D
:10043000A8F321E0821A9108A108B10888EEC80E3D
:1004400083E0D81EE11CF11C81149104A104B104C5
:1004500029F7FF90EF90DF90CF90BF90AF909F90E3
:100460008F900895AF92BF92CF92DF92EF92FF925A
:100470000F931F93CF93DF936C017B018B01040FCC
:10048000151FEB015E01AE18BF08C017D10759F068
:100490006991D601ED91FC910190F081E02DC601AA
:1004A0000995892B79F7C501DF91CF911F910F91A4
:1004B000FF90EF90DF90CF90BF90AF900895862F80
:1004C0000C944801862F642F0C947101862F642FA1
:1004D0000C949F01089590E080E00895FC01019044
:1004E0000020E9F73197AF01481B590BBC0183E2AB
:1004F00092E00C9432028F929F92AF92BF920F9330
:100500001F93CF93DF93CDB7DEB7A1970FB6F894C3
:10051000DEBF0FBECDBF19A2423008F44AE08E0103
:100520000F5D1F4F842E912CB12CA12CA50194019D
:100530000E94930BE62FB901CA01EA30F4F4E05DA2
:10054000D801EE938D01232B242B252B79F790E0F6
:1005500080E0109719F0CD010E946E02A1960FB6AF
:10056000F894DEBF0FBECDBFDF91CF911F910F91E9
:10057000BF90AF909F908F900895E95CE1CF0C946D
:100580006E02CF93DF93EC0160E08E810E947101D7
:1005900061E08E810E94710160E08E810E94710194
:1005A0008BE891E00197F1F7DF91CF910895CF9219
:1005B000DF92EF92FF920F931F93CF93DF936C0123
:1005C0007C0187E0E80EF11CD0E0C0E0062F10E0CF
:1005D000B8010C2E02C0759567950A94E2F7617018
:1005E000F70181917F010E9471012196C430D105EC
:1005F00079F7C601DF91CF911F910F91FF90EF9096
:10060000DF90CF900C94C102CF92DF92EF92FF92D5
:100610000F931F93CF93DF93EC01F62E642F8C8101
:100620000E9471018D818F3F19F060E00E9471017D
:100630000F2D10E08F8584FF25C06E0187E0C80E66
:10064000D11CF12CE12CB8010E2C02C075956795D8
:100650000A94E2F76170F60181916F010E947101C5
:10066000FFEFEF1AFF0A88E0E816F10461F7CE0108
:10067000DF91CF911F910F91FF90EF90DF90CF907E
:100680000C94C102B80184E0759567958A95E1F7ED
:10069000CE010E94D7026F2DCE01DF91CF911F9125
:1006A0000F91FF90EF90DF90CF900C94D70240E035
:1006B000682F83E292E00C94040381E00E945703C8
:1006C0008BE39FE10197F1F70895CF93DF936130BA
:1006D00029F0909132029860909332026093360232
:1006E0001092370290E49093380280933902805C34
:1006F00080933A0261E0809127020E949F018091DD
:1007000028028F3F19F061E00E949F0161E0809113
:1007100029020E949F01C3E2D2E09E01235232408F
:100720008091320284FD0BC084E090E0219628176E
:10073000390744F461E08E810E949F01EECF88E08A
:1007400090E0F4CF8BE39DE00197F1F760E08091BA
:1007500027020E94710160E0809129020E947101CC
:10076000809128028F3F19F060E00E947101809112
:10077000320284FD34C063E083E292E00E94D7023B
:10078000CBE4D6E4CE010197F1F763E083E292E097
:100790000E94D7022197F1F763E083E292E00E9482
:1007A000D70283E592E00197F1F762E083E292E0FD
:1007B0000E94D7028091320280620E94570384E037
:1007C000809333028CE00E9457030E945D0382E015
:1007D0008093340286E0DF91CF910C9457038062BE
:1007E0000E9457038BE496E40197F1F7809132025F
:1007F00080620E94570383E592E00197F1F78091B0
:10080000320280620E945703D5CF643008F063E063
:1008100090913602691710F06FEF690FE62FF0E044
:10082000ED5DFD4F9489890F80680C94570360E05B
:1008300080E00E9405048BE291E00E94BF0261E02B
:1008400080E00E9405048FE291E00E94BF0262E016
:1008500080E00E94050483E391E00E94BF0263E010
:1008600080E00E9405048FE291E00E94BF0260E0F8
:1008700088E00E94050487E391E00E94BF0261E0E6
:1008800088E00E94050489E391E00E94BF0262E0D3
:1008900088E00E9405048BE391E00E94BF0263E0C0
:1008A00088E00E9405048BE391E00C94BF026F92F4
:1008B0007F928F929F92AF92BF92CF92DF92EF92F0
:1008C000FF920F931F93CF93DF9381E080931902E0
:1008D0008FB7F8944091A9015091AA016091AB01A2
:1008E0007091AC018FBF8091090290910A02A09192
:1008F0000B02B0910C02481B590B6A0B7B0B8091C9
:10090000150290911602B0E0A0E084179507A607A3
:10091000B70708F01FC1C0E080911302C81760F448
:10092000E0910F02F0911002EC0FF11D62E0808166
:100930000E949F01CF5FF0CF712C812C912C54012C
:10094000839480911402781608F05FC0072D10E0A0
:10095000E0911102F0911202E00FF11F61E080813D
:100960000E949F01E0911102F0911202E00FF11F2D
:1009700060E080810E947101D501C401072C04C090
:10098000880F991FAA1FBB1F0A94D2F76C017C0124
:10099000E094F094612C809113026816F8F4C62D4F
:1009A000D0E0E0910F02F0911002EC0FFD1F80816A
:1009B0000E9448012496CC0FDD1FC355DE4F892BC2
:1009C00041F4888199818C299D2999838883639436
:1009D000E2CF888199818E219F21F7CFE09111028A
:1009E000F0911202E00FF11F61E080810E9471011D
:1009F0008091110290911202080F191F60E0F80116
:100A000080810E949F0173949CCFCDEAD1E0FE01CA
:100A10008FEF9FEF278D30A1232B21F4148E968F1B
:100A2000858F11A2369621E0E93EF20799F7F12C65
:100A300096E0D92E80911302F81608F050C0E12CF0
:100A40000F2D10E0000F111F0B541E4F20911402A8
:100A5000E21608F042C0F801608171810E2C02C0DC
:100A6000769567950A94E2F7F29E900111242E0D77
:100A7000311DEDEAF1E080E0458D568D24173507F4
:100A800009F4BBC08F5F36968A30B1F760FF23C090
:100A9000EDEAF1E090E080E0448D411117C0E09173
:100AA0000D02F0910E02E20FF31F4081D89EF0017B
:100AB000D99EF00D1124E355FE4F448F368F258FBC
:100AC00010A2178E61E00E94AF0005C00196369615
:100AD0008A30910509F7E394B9CFF394ABCF80E066
:100AE00099A19111892F2696F1E0C93EDF07C1F740
:100AF0009FB7F8944091A9015091AA016091AB0170
:100B00007091AC019FBF4093090250930A02609319
:100B10000B0270930C028823E9F08091CE018823A8
:100B2000C9F08091CC019091CD01019799F4809109
:100B3000C901811112C0DF91CF911F910F91FF90D8
:100B4000EF90DF90CF90BF90AF909F908F907F906D
:100B50006F90089510921902EECF8133D9F48091ED
:100B60001301909114010A9690931401809313013C
:100B70000E945D03DF91CF911F910F91FF90EF9045
:100B8000DF90CF90BF90AF909F908F907F906F90AD
:100B90000C941704823331F4809113019091140165
:100BA0004496E2CF833331F4809113019091140184
:100BB0004E96DACF0E945D0360E080E00E9405045B
:100BC0008DE391E00E94BF0261E080E00E94050495
:100BD0008BE491E00E94BF0268EC70E080E090E05E
:100BE0000E9400020E945D03809113019091140104
:100BF000181619060CF4BECF9ECF617064CF41E089
:100C00000E94040381E090E008954F925F926F92FA
:100C10007F928F929F92AF92BF92CF92DF92EF928C
:100C2000FF920F931F93CF936B017C01742EAC0145
:100C30009B010E948E0B882399F08BE591E0CF9168
:100C40001F910F91FF90EF90DF90CF90BF90AF90EA
:100C50009F908F907F906F905F904F900C946E025A
:100C600046015701E894B7F82FEF3FEF4FE75FE7F2
:100C7000C501B4010E948E0B81110DC02FEF3FEF13
:100C80004FE75FE7C501B4010E94C40918161CF4C0
:100C90008FE591E0D4CF2FEF3FEF4FE75FE4C7013F
:100CA000B6010E941C0B18161CF483E691E0C7CF16
:100CB0002FEF3FEF4FE75FECC701B6010E94C40979
:100CC00087FDF3CF20E030E0A901C701B6010E9403
:100CD000C40910E000E087FF0CC041E06DE283E250
:100CE00092E00E940403F7FAF094F7F8F09401E020
:100CF00010E0C0E060E070E080E09FE37C1641F02F
:100D000020E030E040E251E40E94C909CF5FF6CF15
:100D1000A70196010E9458094B015C010E943B0A01
:100D20002B013C014AE00E947B02080F191FCC23D3
:100D3000C9F1C301B2010E946A0A9B01AC01C5015D
:100D4000B4010E9457094B015C0141E06EE283E26D
:100D500092E00E9404030F5F1F4FC15018F120E082
:100D600030E040E251E4C501B4010E94210B2B01A7
:100D70003C010E943B0A4B01B12CA12C4AE0C50169
:100D8000B4010E947B02080F191FC501B4010E9423
:100D90006A0A9B01AC01C301B2010E9457094B01D1
:100DA0005C01DBCFC801CF911F910F91FF90EF90B5
:100DB000DF90CF90BF90AF909F908F907F906F907B
:100DC0005F904F900895CF92DF92EF92FF92CF9372
:100DD000DF93D82FC2EFC60FC064809122028A3001
:100DE00030F5C0937C0080917A00806480937A0013
:100DF00080917A0086FDFCCF209178008091790067
:100E0000382F8091200290912102820F931F90939E
:100E1000210280932002809122028F5F8093220220
:100E20006AE070E080E090E00E940002D6CF60911E
:100E3000200270912102072E000C880B990B0E9452
:100E40006C0A20E030E040E251E40E94C90921EE42
:100E50003AE740EA50E40E94210B20E030E040E80D
:100E60005AE30E94210B6B017C01C0921C02D092BC
:100E70001D02E0921E02F0921F026D2F83E00E947D
:100E8000050442E0C701B6010E9405061092220245
:100E90001092210210922002DF91CF91FF90EF90EB
:100EA000DF90CF9008951F920F920FB60F921124EA
:100EB0002F933F938F939F93AF93BF938091A901FB
:100EC0009091AA01A091AB01B091AC013091A40125
:100ED00023E0230F2D3758F50196A11DB11D209356
:100EE000A4018093A9019093AA01A093AB01B093B0
:100EF000AC018091A5019091A601A091A701B091AC
:100F0000A8010196A11DB11D8093A5019093A60192
:100F1000A093A701B093A801BF91AF919F918F912A
:100F20003F912F910F900FBE0F901F90189526E8BC
:100F3000230F0296A11DB11DD2CF789484B5826093
:100F400084BD84B5816084BD85B5826085BD85B56D
:100F5000816085BD80916E00816080936E001092EB
:100F60008100809181008260809381008091810066
:100F700081608093810080918000816080938000F7
:100F80008091B10084608093B1008091B000816055
:100F90008093B00080917A00846080937A00809181
:100FA0007A00826080937A0080917A0081608093D9
:100FB0007A0080917A00806880937A001092C10054
:100FC00064E084E10E94650361E086E00E9405041C
:100FD00087E691E00E94BF0262E085E00E9405047E
:100FE0008FE691E00E94BF0268EE73E080E090E03F
:100FF0000E9400020E945D0361E086E00E949F0162
:101000000E941704C0E0D0E0809113019091140178
:10101000892BF9F460E086E00E9471010E945D0373
:1010200060E080E00E9405048CE791E00E94BF022E
:1010300061E080E00E94050487E891E00E94BF0221
:101040006AE070E080E090E00E9400020E94570495
:10105000DBCF61E086E00E9471016EE070E090E01D
:1010600080E00E94E30680911C0290911D02A091F5
:101070001E02B0911F028093A0019093A101A09342
:10108000A201B093A3016FE070E081E090E00E94C4
:10109000E3062091A0013091A1014091A20150915D
:1010A000A30160911C0270911D0280911E0290911B
:1010B0001F020E94210B60939C0170939D018093FD
:1010C0009E0190939F012091980130919901409148
:1010D0009A0150919B010E94580960939801709366
:1010E000990180939A0190939B0120E030E040E2C7
:1010F00051E40E941C0B18168CF4809113019091FE
:101100001401019790931401809313011092980198
:101110001092990110929A0110929B0160E08EE06A
:101120000E94050484E991E00E94BF0260E080E132
:101130000E940504C0901301D09014010D2C000CE6
:10114000EE08FF084AE0C701B601F7FE0EC041E015
:101150006DE283E292E00E94040366277727CB01C9
:101160006C197D098E099F094AE00E947B0262E0AA
:1011700083E00E94050460919C0170919D01809123
:101180009E0190919F0142E00E94050663E083E08A
:101190000E940504609198017091990180919A01D3
:1011A00090919B0142E00E9405060E94570461E075
:1011B00086E00E947101209709F426CF0E9400006A
:1011C00023CF1092AF011092B3011092B20110928E
:1011D000B40185E291E09093AE018093AD01E9EC1A
:1011E000F1E01082148213821582369682E0E53097
:1011F000F807B9F783E091E09093100280930F0213
:1012000080E091E0909312028093110294E0909319
:10121000130283E08093140227E031E030930E0242
:1012200020930D022AE030E030931602209315023D
:1012300024EF31E0309318022093170210921B0222
:1012400010921A021092090210920A0210920B02D6
:1012500010920C021092190210922602109225028E
:1012600029E131E0309324022093230222E12093EC
:1012700027022FEF2093280223E12093290225E063
:1012800020932A0290932B0280932C0282E0809379
:101290002D0210922E0210922F0210923002109204
:1012A00031021092320261E080E10C9465035058E3
:1012B000BB27AA270E946F090C94E20A0E94D40A55
:1012C00038F00E94DB0A20F039F49F3F19F426F42D
:1012D0000C94D10A0EF4E095E7FB0C94CB0AE92FAD
:1012E0000E94F30A58F3BA17620773078407950739
:1012F00020F079F4A6F50C94150B0EF4E0950B2E66
:10130000BA2FA02D0B01B90190010C01CA01A00157
:101310001124FF27591B99F0593F50F4503E68F1B2
:101320001A16F040A22F232F342F4427585FF3CFF3
:10133000469537952795A795F0405395C9F77EF4C4
:101340001F16BA0B620B730B840BBAF09150A1F00D
:10135000FF0FBB1F661F771F881FC2F70EC0BA0F93
:10136000621F731F841F48F4879577956795B7951B
:10137000F7959E3F08F0B0CF9395880F08F0992716
:10138000EE0F9795879508950E94A70A08F481E0CB
:1013900008950E94DD090C94E20A0E94DB0A58F0CD
:1013A0000E94D40A40F029F45F3F29F00C94CB0A44
:1013B00051110C94160B0C94D10A0E94F30A68F395
:1013C0009923B1F3552391F3951B550BBB27AA27FE
:1013D00062177307840738F09F5F5F4F220F331F38
:1013E000441FAA1FA9F335D00E2E3AF0E0E832D000
:1013F00091505040E695001CCAF72BD0FE2F29D003
:10140000660F771F881FBB1F261737074807AB07D4
:10141000B0E809F0BB0B802DBF01FF2793585F4F49
:101420003AF09E3F510578F00C94CB0A0C94160BC1
:101430005F3FE4F3983ED4F3869577956795B7952B
:10144000F7959F5FC9F7880F911D9695879597F936
:101450000895E1E0660F771F881FBB1F62177307AF
:101460008407BA0720F0621B730B840BBA0BEE1FC4
:1014700088F7E09508950E94FB0A88F09F5798F03E
:10148000B92F9927B751B0F0E1F0660F771F881F89
:10149000991F1AF0BA95C9F714C0B13091F00E94A3
:1014A000150BB1E008950C94150B672F782F882742
:1014B000B85F39F0B93FCCF3869577956795B395CA
:1014C000D9F73EF490958095709561957F4F8F4F39
:1014D0009F4F0895E89409C097FB3EF4909580953E
:1014E000709561957F4F8F4F9F4F9923A9F0F92FEA
:1014F00096E9BB279395F695879577956795B79568
:10150000F111F8CFFAF4BB0F11F460FF1BC06F5F4D
:101510007F4F8F4F9F4F16C0882311F096E911C05F
:10152000772321F09EE8872F762F05C0662371F080
:1015300096E8862F70E060E02AF09A95660F771F94
:10154000881FDAF7880F9695879597F90895990F70
:101550000008550FAA0BE0E8FEEF16161706E8077D
:10156000F907C0F012161306E407F50798F0621B9E
:10157000730B840B950B39F40A2661F0232B242B73
:10158000252B21F408950A2609F4A140A6958FEF92
:10159000811D811D089597F99F6780E870E060E0E4
:1015A00008959FEF80EC089500240A9416161706FC
:1015B00018060906089500240A9412161306140644
:1015C00005060895092E0394000C11F4882352F0A7
:1015D000BB0F40F4BF2B11F460FF04C06F5F7F4F5F
:1015E0008F4F9F4F089557FD9058440F551F59F046
:1015F0005F3F71F04795880F97FB991F61F09F3F00
:1016000079F087950895121613061406551FF2CF28
:101610004695F1DF08C0161617061806991FF1CF78
:1016200086957105610508940895E894BB2766279F
:101630007727CB0197F908950E94A70A08F48FEF46
:1016400008950E94340B0C94E20A0E94D40A38F0E8
:101650000E94DB0A20F0952311F00C94CB0A0C9425
:10166000D10A11240C94160B0E94F30A70F3959F73
:10167000C1F3950F50E0551F629FF001729FBB2789
:10168000F00DB11D639FAA27F00DB11DAA1F649F25
:101690006627B00DA11D661F829F2227B00DA11DD8
:1016A000621F739FB00DA11D621F839FA00D611D5E
:1016B000221F749F3327A00D611D231F849F600D7F
:1016C000211D822F762F6A2F11249F5750409AF0A8
:1016D000F1F088234AF0EE0FFF1FBB1F661F771F34
:1016E000881F91505040A9F79E3F510580F00C94FF
:1016F000CB0A0C94160B5F3FE4F3983ED4F3869527
:1017000077956795B795F795E7959F5FC1F7FE2B9E
:10171000880F911D9695879597F908950E94A70ABD
:10172000880B990B0895A1E21A2EAA1BBB1BFD0181
:101730000DC0AA1FBB1FEE1FFF1FA217B307E407B0
:10174000F50720F0A21BB30BE40BF50B661F771F08
:10175000881F991F1A9469F76095709580959095E8
:101760009B01AC01BD01CF010895EE0FFF1F059055
:0A177000F491E02D0994F894FFCFE6
:10177A000D0C0B0A0908073132333435363738393C
:10178A002A3023010000000000FF0532026B026AC2
:10179A000200000000660262025F02563A2000431D
:1017AA003A2000503A2000560041005700456E7416
:1017BA00657220612076616C6964005265636861B4
:1017CA0072676520416D6F756E74006E616E006997
:1017DA006E66006F766600507265706169640045D6
:1017EA006E65726779204D65746572004E6F20428E
:1017FA00616C616E6365005265636861726765203A
:08180A004E6F7700553A000013
:107E0000112484B714BE81FFF0D085E080938100F7
:107E100082E08093C00088E18093C10086E0809377
:107E2000C20080E18093C4008EE0C9D0259A86E02C
:107E300020E33CEF91E0309385002093840096BBD3
:107E4000B09BFECF1D9AA8958150A9F7CC24DD24C4
:107E500088248394B5E0AB2EA1E19A2EF3E0BF2EE7
:107E6000A2D0813461F49FD0082FAFD0023811F036
:107E7000013811F484E001C083E08DD089C08234E0
:107E800011F484E103C0853419F485E0A6D080C0E4
:107E9000853579F488D0E82EFF2485D0082F10E0AE
:107EA000102F00270E291F29000F111F8ED06801E7
:107EB0006FC0863521F484E090D080E0DECF843638
:107EC00009F040C070D06FD0082F6DD080E0C81688
:107ED00080E7D80618F4F601B7BEE895C0E0D1E017
:107EE00062D089930C17E1F7F0E0CF16F0E7DF06D8
:107EF00018F0F601B7BEE89568D007B600FCFDCFD4
:107F0000A601A0E0B1E02C9130E011968C91119780
:107F100090E0982F8827822B932B1296FA010C0160
:107F200087BEE89511244E5F5F4FF1E0A038BF0790
:107F300051F7F601A7BEE89507B600FCFDCF97BE46
:107F4000E89526C08437B1F42ED02DD0F82E2BD052
:107F50003CD0F601EF2C8F010F5F1F4F84911BD097
:107F6000EA94F801C1F70894C11CD11CFA94CF0C13
:107F7000D11C0EC0853739F428D08EE10CD085E9AC
:107F80000AD08FE07ACF813511F488E018D01DD067
:107F900080E101D065CF982F8091C00085FFFCCF94
:107FA0009093C60008958091C00087FFFCCF809118
:107FB000C00084FD01C0A8958091C6000895E0E648
:107FC000F0E098E1908380830895EDDF803219F02E
:107FD00088E0F5DFFFCF84E1DECF1F93182FE3DFCA
:107FE0001150E9F7F2DF1F91089580E0E8DFEE27F6
:047FF000FF270994CA
:027FFE00040479
:0400000300007E007B
:00000001FF
