:100000000C9462000C948A000C948A000C948A0070
:100010000C948A000C948A000C948A000C948A0038
:100020000C948A000C948A000C948A000C948A0028
:100030000C948A000C948A000C948A000C948A0018
:100040000C944D080C948A000C94BD080C949708ED
:100050000C948A000C948A000C948A000C948A00F8
:100060000C948A000C948A000000000024002700F1
:100070002A0000000000250028002B0000000000DE
:1000800023002600290004040404040404040202DA
:100090000202020203030303030301020408102007
:1000A0004080010204081020010204081020000012
:1000B0000008000201000003040700000000000027
:1000C0000000EF0811241FBECFEFD8E0DEBFCDBF88
:1000D00011E0A0E0B1E0EAE0FBE102C005900D9282
:1000E000AC3AB107D9F722E0ACEAB1E001C01D9209
:1000F000AC3EB207E1F710E0C2E6D0E004C02197C1
:10010000FE010E947D0DC136D107C9F70E94A709E3
:100110000C94830D0C94000096E0899FD00111246B
:10012000A358BD4F90967C936E935F9791E0919604
:100130009C939197E091EA02F091EB029091E90291
:10014000992339F0309751F0811108C080919902BC
:100150000994309719F05C968C91FACF0895CF925C
:10016000DF92EF92FF920F931F9396E0899FF00129
:100170001124E358FD4F11A2278D30A12130310504
:1001800051F178F02230310509F451C023303105A6
:1001900009F452C01F910F91FF90EF90DF90CF9024
:1001A00008956623B9F361E070E00E948C002FB7D8
:1001B000F8948091BD019091BE01A091BF01B091D2
:1001C000C0012FBF8093D5029093D602A093D7028F
:1001D000B093D802DFCF9FB7F894C090BD01D09004
:1001E000BE01E090BF01F090C0019FBF0091D50219
:1001F0001091D6022091D7023091D802C01AD10AAC
:10020000E20AF30A0091E7021091E80230E020E0F0
:100210000C151D052E053F0550F462E070E01F919E
:100220000F91FF90EF90DF90CF900C948C006111B4
:10023000B1CF63E070E0F3CF70E060E0F0CF8330E7
:1002400081F028F4813099F08230A9F00895873048
:10025000A9F08830C9F08430B1F4809180008F7D9E
:1002600003C0809180008F7780938000089584B5CB
:100270008F7784BD089584B58F7DFBCF8091B000CA
:100280008F778093B00008958091B0008F7DF9CF73
:10029000CF93DF93282F30E0F901E255FF4F84918F
:1002A000F901E656FF4FD491F901EA57FF4FC49187
:1002B000CC23A1F081110E941F01EC2FF0E0EE0F82
:1002C000FF1FE458FF4FA591B491EC91ED2381E01D
:1002D00090E009F480E0DF91CF91089580E090E014
:1002E000FACF1F93CF93DF93282F30E0F901E25527
:1002F000FF4F8491F901E656FF4FD491F901EA5777
:10030000FF4FC491CC23A9F0162F81110E941F0129
:10031000EC2FF0E0EE0FFF1FEE58FF4FA591B491C8
:100320008FB7F894EC91111108C0D095DE23DC93BF
:100330008FBFDF91CF911F910895DE2BF8CFCF9320
:10034000DF9390E0FC01E656FF4F24918A579F4FC0
:10035000FC0184918823C9F090E0880F991FFC016B
:10036000E859FF4FA591B491FC01EE58FF4FC5919C
:10037000D49161110DC09FB7F8948C912095822380
:100380008C938881282328839FBFDF91CF91089584
:10039000623051F49FB7F8943C91822F809583236B
:1003A0008C93E8812E2BEFCF8FB7F894EC912E2B06
:1003B0002C938FBFEACF3FB7F8948091B901909109
:1003C000BA01A091BB01B091BC0126B5A89B05C0A4
:1003D0002F3F19F00196A11DB11D3FBFBA2FA92FC4
:1003E000982F8827BC01CD01620F711D811D911DC1
:1003F00042E0660F771F881F991F4A95D1F708952D
:100400008F929F92AF92BF92CF92DF92EF92FF9224
:100410004B015C010E94DB016B017C010E94DB014E
:100420006C197D098E099F09683E7340810591050D
:10043000A8F321E0821A9108A108B10888EEC80E3D
:1004400083E0D81EE11CF11C81149104A104B104C5
:1004500029F7FF90EF90DF90CF90BF90AF909F90E3
:100460008F900895AF92BF92CF92DF92EF92FF925A
:100470000F931F93CF93DF936C017B018B01040FCC
:10048000151FEB015E01AE18BF08C017D10759F068
:100490006991D601ED91FC910190F081E02DC601AA
:1004A0000995892B79F7C501DF91CF911F910F91A4
:1004B000FF90EF90DF90CF90BF90AF900895FC0138
:1004C000538D448D252F30E0842F90E0821B930BB9
:1004D000541710F0CF96089501970895FC01918D5F
:1004E000828D981761F0A28DAE0FBF2FB11D5D9662
:1004F0008C91928D9F5F9F73928F90E008958FEF04
:100500009FEF0895FC01918D828D981731F0828DB7
:10051000E80FF11D858D90E008958FEF9FEF08950E
:10052000FC01918D228D892F90E0805C9F4F821B72
:1005300091098F739927089588EC91E00E949002A9
:1005400021E0892B09F420E0822F089580E090E0DB
:10055000892B29F00E949C0281110C9400000895BF
:10056000FC01A48DA80FB92FB11DA35ABF4F2C9128
:10057000848D90E001968F739927848FA689B7891F
:100580002C93A089B1898C91837080648C93938D16
:10059000848D981306C00288F389E02D80818F7DB9
:1005A00080830895EF92FF920F931F93CF93DF9371
:1005B000EC0181E0888F9B8D8C8D98131AC0E8899F
:1005C000F989808185FF15C09FB7F894EE89FF896E
:1005D0006083E889F98980818370806480839FBF0C
:1005E00081E090E0DF91CF911F910F91FF90EF900C
:1005F0000895F62E0B8D10E00F5F1F4F0F7311271C
:10060000E02E8C8D8E110CC00FB607FCFACFE88956
:10061000F989808185FFF5CFCE010E94B002F1CF2C
:10062000EB8DEC0FFD2FF11DE35AFF4FF0829FB7CA
:10063000F8940B8FEA89FB8980818062CFCFCF93BA
:10064000DF93EC01888D8823B9F0AA89BB89E889FA
:10065000F9898C9185FD03C0808186FD0DC00FB6A0
:1006600007FCF7CF8C9185FFF2CF808185FFEDCF1E
:10067000CE010E94B002E9CFDF91CF910895862F7D
:100680000C944801862F642F0C947101862F642FDF
:100690000C949F01089590E080E00895CF93DF933C
:1006A000EC0160E08E810E94710161E08E810E9408
:1006B000710160E08E810E9471018BE891E00197E9
:1006C000F1F7DF91CF910895CF92DF92EF92FF92F1
:1006D0000F931F93CF93DF936C017C0187E0E80EAB
:1006E000F11CD0E0C0E0062F10E0B8010C2E02C0D3
:1006F000759567950A94E2F76170F70181917F0122
:100700000E9471012196C430D10579F7C601DF91AD
:10071000CF911F910F91FF90EF90DF90CF900C94AD
:100720004E03CF92DF92EF92FF920F931F93CF93DE
:10073000DF93EC01F62E642F8C810E9471018D8174
:100740008F3F19F060E00E9471010F2D10E08F853E
:1007500084FF25C06E0187E0C80ED11CF12CE12C6E
:10076000B8010E2C02C0759567950A94E2F7617086
:10077000F60181916F010E947101FFEFEF1AFF0AEC
:1007800088E0E816F10461F7CE01DF91CF911F9167
:100790000F91FF90EF90DF90CF900C944E03B80133
:1007A00084E0759567958A95E1F7CE010E94640310
:1007B0006F2DCE01DF91CF911F910F91FF90EF90A0
:1007C000DF90CF900C94640340E0682F85E692E0C0
:1007D0000C94910381E00E94E4038BE39FE1019775
:1007E000F1F70895CF93DF93613029F0909174026F
:1007F000986090937402609378021092790290E46A
:1008000090937A0280937B02805C80937C0261E00B
:10081000809169020E949F0180916A028F3F19F0C6
:1008200061E00E949F0161E080916B020E949F0144
:10083000C5E6D2E09E01255632408091740284FDC7
:100840000BC084E090E021962817390744F461E05A
:100850008E810E949F01EECF88E090E0F4CF8BE381
:100860009DE00197F1F760E0809169020E947101BB
:1008700060E080916B020E94710180916A028F3F5B
:1008800019F060E00E9471018091740284FD34C00F
:1008900063E085E692E00E946403CBE4D6E4CE01F7
:1008A0000197F1F763E085E692E00E9464032197E7
:1008B000F1F763E085E692E00E94640383E592E04D
:1008C0000197F1F762E085E692E00E94640380916F
:1008D000740280620E94E40384E0809375028CE0DD
:1008E0000E94E4030E94EA0382E08093760286E09D
:1008F000DF91CF910C94E40380620E94E4038BE4C7
:1009000096E40197F1F78091740280620E94E403FB
:1009100083E592E00197F1F78091740280620E9472
:10092000E403D5CF643008F063E090917802691752
:1009300010F06FEF690FE62FF0E0EB59FD4F94894F
:10094000890F80680C94E40341E00E94910381E0E8
:1009500090E00895FB0101900020E9F73197AF0185
:10096000461B570BDC01ED91FC910280F381E02DD9
:1009700009948F929F92AF92BF920F931F93CF9340
:10098000DF93CDB7DEB7A1970FB6F894DEBF0FBEE9
:10099000CDBF19A2423008F44AE08E010F5D1F4F0F
:1009A000842E912CB12CA12CA50194010E945B0DE9
:1009B000E62FB901CA01EA3004F5E05DD801EE93F3
:1009C0008D01232B242B252B79F790E080E01097C5
:1009D00029F0BD0185E692E00E94AA04A1960FB617
:1009E000F894DEBF0FBECDBFDF91CF911F910F9165
:1009F000BF90AF909F908F900895E95CDFCFBC01CE
:100A000085E692E00C94AA0460E080E00E949204E3
:100A10008DE391E00E94FF0461E080E00E94920477
:100A200081E491E00E94FF0462E080E00E94920471
:100A300085E491E00E94FF0463E080E00E9492045C
:100A400081E491E00E94FF0460E088E00E9492044B
:100A500089E491E00E94FF0461E088E00E94920432
:100A60008BE491E00E94FF0462E088E00E9492041F
:100A70008DE491E00E94FF0463E088E00E9492040C
:100A80008DE491E00C94FF044F925F926F927F92FD
:100A90008F929F92AF92BF92CF92DF92EF92FF928E
:100AA0000F931F93CF936B017C01742EAC019B01BC
:100AB0000E94560D6FE471E0811126C04601570176
:100AC000E894B7F82FEF3FEF4FE75FE7C501B401B8
:100AD0000E94560D81110CC02FEF3FEF4FE75FE7EB
:100AE000C501B4010E948C0B63E571E0181664F037
:100AF0002FEF3FEF4FE75FE4C701B6010E94E40C20
:100B00001816ACF467E571E085E692E0CF911F918D
:100B10000F91FF90EF90DF90CF90BF90AF909F909C
:100B20008F907F906F905F904F900C94AA042FEF5E
:100B30003FEF4FE75FECC701B6010E948C0B87FDCA
:100B4000E1CF20E030E0A901C701B6010E948C0B83
:100B500010E000E087FF0CC041E06DE285E692E026
:100B60000E949103F7FAF094F7F8F09401E010E096
:100B7000C0E060E070E080E09FE37C1641F020E0A0
:100B800030E040E251E40E94910BCF5FF6CFA70125
:100B900096010E94200B4B015C010E94030C2B016B
:100BA0003C014AE00E94B904080F191FCC23C9F187
:100BB000C301B2010E94320C9B01AC01C501B4011A
:100BC0000E941F0B4B015C0141E06EE285E692E062
:100BD0000E9491030F5F1F4FC15018F120E030E0D9
:100BE00040E251E4C501B4010E94E90C2B013C0133
:100BF0000E94030C4B01B12CA12C4AE0C501B401A9
:100C00000E94B904080F191FC501B4010E94320CDB
:100C10009B01AC01C301B2010E941F0B4B015C019F
:100C2000DBCFC801CF911F910F91FF90EF90DF9024
:100C3000CF90BF90AF909F908F907F906F905F907C
:100C40004F900895CF92DF92EF92FF92CF93DF9370
:100C5000D82FC2EFC60FC0648091C7018A3030F52B
:100C6000C0937C0080917A00806480937A008091A8
:100C70007A0086FDFCCF2091780080917900382F92
:100C80008091C5019091C601820F931F9093C60178
:100C90008093C5018091C7018F5F8093C7016AE08F
:100CA00070E080E090E00E940002D6CF6091C50124
:100CB0007091C601072E000C880B990B0E94340C12
:100CC00020E030E040E251E40E94910B21EE3AE74F
:100CD00040EA50E40E94E90C20E030E040E85AE3AA
:100CE0000E94E90C6B017C01C092C101D092C2014B
:100CF000E092C301F092C4016D2F83E00E94920440
:100D000042E0C701B6010E9444051092C70110924B
:100D1000C6011092C501DF91CF91FF90EF90DF9057
:100D2000CF9008956F927F928F929F92AF92BF92D1
:100D3000CF92DF92EF92FF920F931F93CF93DF93A7
:100D400081E08093E9028FB7F8944091BD01509102
:100D5000BE016091BF017091C0018FBF8091D90227
:100D60009091DA02A091DB02B091DC02481B590B92
:100D70006A0B7B0B8091E5029091E602B0E0A0E067
:100D800084179507A607B70708F014C1C0E0809143
:100D9000E302C81760F4E091DF02F091E002EC0F8B
:100DA000F11D62E080810E949F01CF5FF0CF712C26
:100DB000812C912C540183948091E402781608F0E0
:100DC0005FC0072D10E0E091E102F091E202E00F38
:100DD000F11F61E080810E949F01E091E102F091AA
:100DE000E202E00FF11F60E080810E947101D501F5
:100DF000C401072C04C0880F991FAA1FBB1F0A94A7
:100E0000D2F76C017C01E094F094612C8091E302B4
:100E10006816F8F4C62DD0E0E091DF02F091E00210
:100E2000EC0FFD1F80810E9448012496CC0FDD1F2E
:100E3000C358DD4F892B41F4888199818C299D29E4
:100E4000998388836394E2CF888199818E219F2141
:100E5000F7CFE091E102F091E202E00FF11F61E0D3
:100E600080810E9471018091E1029091E202080F5D
:100E7000191F60E0F80180810E949F0173949CCF4C
:100E80002DE7C22E22E0D22EE6018FEF9FEF2F8DAD
:100E900038A1232B21F41C8E9E8F8D8F19A22696AC
:100EA000F2E0C93BDF0799F710E096E0B92E809198
:100EB000E302181708F052C000E0E12EF12CEE0C0E
:100EC000FF1CC7018B579D4F7C012091E402021744
:100ED00008F042C0F70160817181002E02C0769552
:100EE00067950A94E2F7129F90011124200F311D9B
:100EF000EDE7F2E080E0458D568D2417350709F4C3
:100F0000BBC08F5F36968A30B1F760FF23C0EDE734
:100F1000F2E090E080E0448D411117C0E091DD02E5
:100F2000F091DE02E20FF31F4081B89EF001B99EFE
:100F3000F00D1124E358FD4F448F368F258F10A2FA
:100F4000178E61E00E94AF0005C0019636968A3088
:100F5000910509F70F5FB9CF1F5FA9CF80E0F601B8
:100F600091A19111892FF6E0CF0ED11CCC15DD0592
:100F7000B1F79FB7F8944091BD015091BE016091C7
:100F8000BF017091C0019FBF4093D9025093DA0214
:100F90006093DB027093DC02882361F080919E02F3
:100FA000882341F080919C0290919D02C09199020A
:100FB000019719F01092E902C0E06C2F88EC91E0E3
:100FC0000E94D2026BE571E088EC91E00E94AA04D5
:100FD000CC2309F453C080910001909101010A963D
:100FE000C13339F0C233D9F48091000190910101ED
:100FF000449690930101809300010E94EA03DF91DF
:10100000CF911F910F91FF90EF90DF90CF90BF9005
:10101000AF909F908F907F906F900C94040580917B
:101020000001909101014E96C33319F30E94EA0327
:1010300060E080E00E9492048EE591E00E94FF044F
:1010400061E080E00E9492048CE691E00E94FF043F
:1010500060ED77E080E090E0DF91CF911F910F91FC
:10106000FF90EF90DF90CF90BF90AF909F908F90C8
:101070007F906F900C940002617064CFDF91CF91EC
:101080001F910F91FF90EF90DF90CF90BF90AF90A6
:101090009F908F907F906F9008951F920F920FB640
:1010A0000F9211242F933F938F939F93AF93BF93EE
:1010B0008091BD019091BE01A091BF01B091C0018E
:1010C0003091B80123E0230F2D3758F50196A11D6B
:1010D000B11D2093B8018093BD019093BE01A093F0
:1010E000BF01B093C0018091B9019091BA01A09164
:1010F000BB01B091BC010196A11DB11D8093B90146
:101100009093BA01A093BB01B093BC01BF91AF9182
:101110009F918F913F912F910F900FBE0F901F9035
:10112000189526E8230F0296A11DB11DD2CF1F925C
:101130000F920FB60F9211242F933F934F935F930B
:101140006F937F938F939F93AF93BF93EF93FF938F
:1011500088EC91E00E94B002FF91EF91BF91AF91B6
:101160009F918F917F916F915F914F913F912F91BF
:101170000F900FBE0F901F9018951F920F920FB6F1
:101180000F9211242F938F939F93EF93FF93E091EE
:10119000D801F091D9018081E091DE01F091DF0169
:1011A00082FD1BC090818091E1018F5F8F73209140
:1011B000E201821741F0E091E101F0E0E853FE4FD7
:1011C000958F8093E101FF91EF919F918F912F91E6
:1011D0000F900FBE0F901F9018958081F4CF109242
:1011E000CB011092CA0188EE93E0A0E0B0E08093BA
:1011F000CC019093CD01A093CE01B093CF0189E1B2
:1012000091E09093C9018093C80185EC90E09093A0
:10121000D5018093D40184EC90E09093D701809322
:10122000D60180EC90E09093D9018093D80181ECB5
:1012300090E09093DB018093DA0182EC90E0909350
:10124000DD018093DC0186EC90E09093DF018093D8
:10125000DE011092E1011092E2011092E30110927E
:10126000E40110927F021092830210928202109287
:10127000840287E391E090937E0280937D02E9E906
:10128000F2E01082148213821582369682E0E53DE8
:10129000F807B9F785E091E09093E0028093DF02D0
:1012A00082E091E09093E2028093E10294E09093D7
:1012B000E30283E08093E40229E031E03093DE0230
:1012C0002093DD022AE030E03093E6022093E5022D
:1012D00024EF31E03093E8022093E7021092EB0212
:1012E0001092EA021092D9021092DA021092DB02F6
:1012F0001092DC021092E9021092680210926702CA
:101300002BE231E0309366022093650222E12093C4
:1013100069022FEF20936A0223E120936B0225E0FC
:1013200020936C0290936D0280936E0282E0809312
:101330006F0210927002109271021092720210925B
:1013400073021092740261E080E10C94F2037894CD
:1013500084B5826084BD84B5816084BD85B58260BA
:1013600085BD85B5816085BD80916E00816080936B
:101370006E001092810080918100826080938100D4
:1013800080918100816080938100809180008160E4
:10139000809380008091B10084608093B10080913F
:1013A000B00081608093B00080917A008460809367
:1013B0007A0080917A00826080937A0080917A002E
:1013C000816080937A0080917A00806880937A00AF
:1013D0001092C100E091D801F091D90182E08083A0
:1013E000E091D401F091D5011082E091D601F09105
:1013F000D7018FEC80831092E001E091DC01F09145
:10140000DD0186E08083E091DA01F091DB018081EB
:1014100080618083E091DA01F091DB018081886056
:101420008083E091DA01F091DB0180818068808324
:10143000E091DA01F091DB0180818F7D808364E0AF
:1014400084E10E94F20361E086E00E9492048CE74E
:1014500091E00E94FF0462E085E00E94920484E82B
:1014600091E00E94FF0468E873E180E090E00E9450
:1014700000020E94EA0361E086E00E949F010E9450
:101480000405C0E0D0E08091000190910101892B1A
:10149000C9F460E086E00E9471010E94EA0360E006
:1014A00080E00E94920481E991E00E94FF0461E0E3
:1014B00080E00E9492048CE991E00E94FF040E9467
:1014C0009206E1CF61E086E00E9471016EE070E07B
:1014D00090E080E00E9422068091C1019091C201BB
:1014E000A091C301B091C4018093B4019093B50160
:1014F000A093B601B093B7016FE070E081E090E097
:101500000E9422062091B4013091B5014091B601AC
:101510005091B7016091C1017091C2018091C301E6
:101520009091C4010E94E90C6093B0017093B101E5
:101530008093B2019093B3012091AC013091AD0141
:101540004091AE015091AF010E94200B6093AC011D
:101550007093AD018093AE019093AF0120E030E035
:1015600040E251E40E94E40C18168CF480910001D2
:1015700090910101019790930101809300011092D5
:10158000AC011092AD011092AE011092AF0160E07B
:101590008EE00E94920489EA91E00E94FF0460E0DC
:1015A00080E10E949204C0900001D09001010D2CB6
:1015B000000CEE08FF084AE0C701B601F7FE0EC0B6
:1015C00041E06DE285E692E00E949103662777276D
:1015D000CB016C197D098E099F094AE00E94B9046C
:1015E00062E083E00E9492046091B0017091B101C9
:1015F0008091B2019091B30142E00E94440563E002
:1016000083E00E9492046091AC017091AD018091E1
:10161000AE019091AF0142E00E9444050E94920603
:1016200061E086E00E947101209709F42CCF0E94AE
:101630009C02882309F427CF0E94000024CF505831
:10164000BB27AA270E94370B0C94AA0C0E949C0C63
:1016500038F00E94A30C20F039F49F3F19F426F4CF
:101660000C94990C0EF4E095E7FB0C94930CE92F85
:101670000E94BB0C58F3BA176207730784079507DB
:1016800020F079F4A6F50C94DD0C0EF4E0950B2E09
:10169000BA2FA02D0B01B90190010C01CA01A001C4
:1016A0001124FF27591B99F0593F50F4503E68F11F
:1016B0001A16F040A22F232F342F4427585FF3CF60
:1016C000469537952795A795F0405395C9F77EF431
:1016D0001F16BA0B620B730B840BBAF09150A1F07A
:1016E000FF0FBB1F661F771F881FC2F70EC0BA0F00
:1016F000621F731F841F48F4879577956795B79588
:10170000F7959E3F08F0B0CF9395880F08F0992782
:10171000EE0F9795879508950E946F0C08F481E06D
:1017200008950E94A50B0C94AA0C0E94A30C58F0DB
:101730000E949C0C40F029F45F3F29F00C94930C1C
:1017400051110C94DE0C0C94990C0E94BB0C68F3A4
:101750009923B1F3552391F3951B550BBB27AA276A
:1017600062177307840738F09F5F5F4F220F331FA4
:10177000441FAA1FA9F335D00E2E3AF0E0E832D06C
:1017800091505040E695001CCAF72BD0FE2F29D06F
:10179000660F771F881FBB1F261737074807AB0741
:1017A000B0E809F0BB0B802DBF01FF2793585F4FB6
:1017B0003AF09E3F510578F00C94930C0C94DE0C9B
:1017C0005F3FE4F3983ED4F3869577956795B79598
:1017D000F7959F5FC9F7880F911D9695879597F9A3
:1017E0000895E1E0660F771F881FBB1F621773071C
:1017F0008407BA0720F0621B730B840BBA0BEE1F31
:1018000088F7E09508950E94C30C88F09F5798F0E0
:10181000B92F9927B751B0F0E1F0660F771F881FF5
:10182000991F1AF0BA95C9F714C0B13091F00E940F
:10183000DD0CB1E008950C94DD0C672F782F88271C
:10184000B85F39F0B93FCCF3869577956795B39536
:10185000D9F73EF490958095709561957F4F8F4FA5
:101860009F4F0895E89409C097FB3EF490958095AA
:10187000709561957F4F8F4F9F4F9923A9F0F92F56
:1018800096E9BB279395F695879577956795B795D4
:10189000F111F8CFFAF4BB0F11F460FF1BC06F5FBA
:1018A0007F4F8F4F9F4F16C0882311F096E911C0CC
:1018B000772321F09EE8872F762F05C0662371F0ED
:1018C00096E8862F70E060E02AF09A95660F771F01
:1018D000881FDAF7880F9695879597F90895990FDD
:1018E0000008550FAA0BE0E8FEEF16161706E807EA
:1018F000F907C0F012161306E407F50798F0621B0B
:10190000730B840B950B39F40A2661F0232B242BDF
:10191000252B21F408950A2609F4A140A6958FEFFE
:10192000811D811D089597F99F6780E870E060E050
:1019300008959FEF80EC089500240A941616170668
:1019400018060906089500240A94121613061406B0
:1019500005060895092E0394000C11F4882352F013
:10196000BB0F40F4BF2B11F460FF04C06F5F7F4FCB
:101970008F4F9F4F089557FD9058440F551F59F0B2
:101980005F3F71F04795880F97FB991F61F09F3F6C
:1019900079F087950895121613061406551FF2CF95
:1019A0004695F1DF08C0161617061806991FF1CFE5
:1019B00086957105610508940895E894BB2766270C
:1019C0007727CB0197F908950E946F0C08F48FEFE9
:1019D00008950E94FC0C0C94AA0C0E949C0C38F0F8
:1019E0000E94A30C20F0952311F00C94930C0C94FE
:1019F000990C11240C94DE0C0E94BB0C70F3959F83
:101A0000C1F3950F50E0551F629FF001729FBB27F5
:101A1000F00DB11D639FAA27F00DB11DAA1F649F91
:101A20006627B00DA11D661F829F2227B00DA11D44
:101A3000621F739FB00DA11D621F839FA00D611DCA
:101A4000221F749F3327A00D611D231F849F600DEB
:101A5000211D822F762F6A2F11249F5750409AF014
:101A6000F1F088234AF0EE0FFF1FBB1F661F771FA0
:101A7000881F91505040A9F79E3F510580F00C946B
:101A8000930C0C94DE0C5F3FE4F3983ED4F3869500
:101A900077956795B795F795E7959F5FC1F7FE2B0B
:101AA000880F911D9695879597F908950E946F0C60
:101AB000880B990B0895A1E21A2EAA1BBB1BFD01EE
:101AC0000DC0AA1FBB1FEE1FFF1FA217B307E4071D
:101AD000F50720F0A21BB30BE40BF50B661F771F75
:101AE000881F991F1A9469F7609570958095909555
:101AF0009B01AC01BD01CF010895EE0FFF1F0590C2
:0A1B0000F491E02D0994F894FFCF52
:101B0A0001000D0C0B0A0908073132333435363718
:101B1A0038392A302300000000D20232025F021F45
:101B2A000390026E02820200000000A40432024BFB
:101B3A00034A0300000000460342033F03563A20CB
:101B4A0000433A2000503A20005600410057006EE8
:101B5A00616E00696E66006F7666000D0A00456E5A
:101B6A0074657220612076616C69640052656368ED
:101B7A006172676520416D6F756E74005072657091
:101B8A0061696400456E65726779204D6574657296
:101B9A00004E6F2042616C616E6365005265636836
:0C1BAA0061726765204E6F7700553A00AD
:107E0000112484B714BE81FFF0D085E080938100F7
:107E100082E08093C00088E18093C10086E0809377
:107E2000C20080E18093C4008EE0C9D0259A86E02C
:107E300020E33CEF91E0309385002093840096BBD3
:107E4000B09BFECF1D9AA8958150A9F7CC24DD24C4
:107E500088248394B5E0AB2EA1E19A2EF3E0BF2EE7
:107E6000A2D0813461F49FD0082FAFD0023811F036
:107E7000013811F484E001C083E08DD089C08234E0
:107E800011F484E103C0853419F485E0A6D080C0E4
:107E9000853579F488D0E82EFF2485D0082F10E0AE
:107EA000102F00270E291F29000F111F8ED06801E7
:107EB0006FC0863521F484E090D080E0DECF843638
:107EC00009F040C070D06FD0082F6DD080E0C81688
:107ED00080E7D80618F4F601B7BEE895C0E0D1E017
:107EE00062D089930C17E1F7F0E0CF16F0E7DF06D8
:107EF00018F0F601B7BEE89568D007B600FCFDCFD4
:107F0000A601A0E0B1E02C9130E011968C91119780
:107F100090E0982F8827822B932B1296FA010C0160
:107F200087BEE89511244E5F5F4FF1E0A038BF0790
:107F300051F7F601A7BEE89507B600FCFDCF97BE46
:107F4000E89526C08437B1F42ED02DD0F82E2BD052
:107F50003CD0F601EF2C8F010F5F1F4F84911BD097
:107F6000EA94F801C1F70894C11CD11CFA94CF0C13
:107F7000D11C0EC0853739F428D08EE10CD085E9AC
:107F80000AD08FE07ACF813511F488E018D01DD067
:107F900080E101D065CF982F8091C00085FFFCCF94
:107FA0009093C60008958091C00087FFFCCF809118
:107FB000C00084FD01C0A8958091C6000895E0E648
:107FC000F0E098E1908380830895EDDF803219F02E
:107FD00088E0F5DFFFCF84E1DECF1F93182FE3DFCA
:107FE0001150E9F7F2DF1F91089580E0E8DFEE27F6
:047FF000FF270994CA
:027FFE00040479
:0400000300007E007B
:00000001FF
